{
  "_format": "hh-sol-artifact-1",
  "contractName": "Totality",
  "sourceName": "contracts/YourCollectible.sol",
  "abi": [
    {
      "inputs": [],
      "stateMutability": "nonpayable",
      "type": "constructor"
    },
    {
      "anonymous": false,
      "inputs": [
        {
          "indexed": true,
          "internalType": "address",
          "name": "owner",
          "type": "address"
        },
        {
          "indexed": true,
          "internalType": "address",
          "name": "approved",
          "type": "address"
        },
        {
          "indexed": true,
          "internalType": "uint256",
          "name": "tokenId",
          "type": "uint256"
        }
      ],
      "name": "Approval",
      "type": "event"
    },
    {
      "anonymous": false,
      "inputs": [
        {
          "indexed": true,
          "internalType": "address",
          "name": "owner",
          "type": "address"
        },
        {
          "indexed": true,
          "internalType": "address",
          "name": "operator",
          "type": "address"
        },
        {
          "indexed": false,
          "internalType": "bool",
          "name": "approved",
          "type": "bool"
        }
      ],
      "name": "ApprovalForAll",
      "type": "event"
    },
    {
      "anonymous": false,
      "inputs": [
        {
          "indexed": true,
          "internalType": "address",
          "name": "previousOwner",
          "type": "address"
        },
        {
          "indexed": true,
          "internalType": "address",
          "name": "newOwner",
          "type": "address"
        }
      ],
      "name": "OwnershipTransferred",
      "type": "event"
    },
    {
      "anonymous": false,
      "inputs": [
        {
          "indexed": true,
          "internalType": "address",
          "name": "from",
          "type": "address"
        },
        {
          "indexed": true,
          "internalType": "address",
          "name": "to",
          "type": "address"
        },
        {
          "indexed": true,
          "internalType": "uint256",
          "name": "tokenId",
          "type": "uint256"
        }
      ],
      "name": "Transfer",
      "type": "event"
    },
    {
      "inputs": [],
      "name": "GIFT",
      "outputs": [
        {
          "internalType": "uint256",
          "name": "",
          "type": "uint256"
        }
      ],
      "stateMutability": "view",
      "type": "function"
    },
    {
      "inputs": [],
      "name": "LIMIT_PER_MINT",
      "outputs": [
        {
          "internalType": "uint256",
          "name": "",
          "type": "uint256"
        }
      ],
      "stateMutability": "view",
      "type": "function"
    },
    {
      "inputs": [],
      "name": "MAX_SUPPLY_LIMIT",
      "outputs": [
        {
          "internalType": "uint256",
          "name": "",
          "type": "uint256"
        }
      ],
      "stateMutability": "view",
      "type": "function"
    },
    {
      "inputs": [],
      "name": "PRICE",
      "outputs": [
        {
          "internalType": "uint256",
          "name": "",
          "type": "uint256"
        }
      ],
      "stateMutability": "view",
      "type": "function"
    },
    {
      "inputs": [],
      "name": "PRIVATE",
      "outputs": [
        {
          "internalType": "uint256",
          "name": "",
          "type": "uint256"
        }
      ],
      "stateMutability": "view",
      "type": "function"
    },
    {
      "inputs": [],
      "name": "PUBLIC",
      "outputs": [
        {
          "internalType": "uint256",
          "name": "",
          "type": "uint256"
        }
      ],
      "stateMutability": "view",
      "type": "function"
    },
    {
      "inputs": [
        {
          "internalType": "address[]",
          "name": "entries",
          "type": "address[]"
        }
      ],
      "name": "addToPresaleList",
      "outputs": [],
      "stateMutability": "nonpayable",
      "type": "function"
    },
    {
      "inputs": [
        {
          "internalType": "address",
          "name": "to",
          "type": "address"
        },
        {
          "internalType": "uint256",
          "name": "tokenId",
          "type": "uint256"
        }
      ],
      "name": "approve",
      "outputs": [],
      "stateMutability": "nonpayable",
      "type": "function"
    },
    {
      "inputs": [
        {
          "internalType": "address",
          "name": "owner",
          "type": "address"
        }
      ],
      "name": "balanceOf",
      "outputs": [
        {
          "internalType": "uint256",
          "name": "",
          "type": "uint256"
        }
      ],
      "stateMutability": "view",
      "type": "function"
    },
    {
      "inputs": [],
      "name": "baseURI",
      "outputs": [
        {
          "internalType": "string",
          "name": "",
          "type": "string"
        }
      ],
      "stateMutability": "view",
      "type": "function"
    },
    {
      "inputs": [
        {
          "internalType": "uint256",
          "name": "tokenQuantity",
          "type": "uint256"
        }
      ],
      "name": "buy",
      "outputs": [],
      "stateMutability": "payable",
      "type": "function"
    },
    {
      "inputs": [
        {
          "internalType": "uint256",
          "name": "tokenId",
          "type": "uint256"
        }
      ],
      "name": "getApproved",
      "outputs": [
        {
          "internalType": "address",
          "name": "",
          "type": "address"
        }
      ],
      "stateMutability": "view",
      "type": "function"
    },
    {
      "inputs": [
        {
          "internalType": "address[]",
          "name": "receivers",
          "type": "address[]"
        }
      ],
      "name": "gift",
      "outputs": [],
      "stateMutability": "nonpayable",
      "type": "function"
    },
    {
      "inputs": [],
      "name": "giftedAmountMinted",
      "outputs": [
        {
          "internalType": "uint256",
          "name": "",
          "type": "uint256"
        }
      ],
      "stateMutability": "view",
      "type": "function"
    },
    {
      "inputs": [
        {
          "internalType": "address",
          "name": "owner",
          "type": "address"
        },
        {
          "internalType": "address",
          "name": "operator",
          "type": "address"
        }
      ],
      "name": "isApprovedForAll",
      "outputs": [
        {
          "internalType": "bool",
          "name": "",
          "type": "bool"
        }
      ],
      "stateMutability": "view",
      "type": "function"
    },
    {
      "inputs": [
        {
          "internalType": "address",
          "name": "addr",
          "type": "address"
        }
      ],
      "name": "isPresaler",
      "outputs": [
        {
          "internalType": "bool",
          "name": "",
          "type": "bool"
        }
      ],
      "stateMutability": "view",
      "type": "function"
    },
    {
      "inputs": [],
      "name": "lockMetadata",
      "outputs": [],
      "stateMutability": "nonpayable",
      "type": "function"
    },
    {
      "inputs": [],
      "name": "locked",
      "outputs": [
        {
          "internalType": "bool",
          "name": "",
          "type": "bool"
        }
      ],
      "stateMutability": "view",
      "type": "function"
    },
    {
      "inputs": [],
      "name": "name",
      "outputs": [
        {
          "internalType": "string",
          "name": "",
          "type": "string"
        }
      ],
      "stateMutability": "view",
      "type": "function"
    },
    {
      "inputs": [],
      "name": "owner",
      "outputs": [
        {
          "internalType": "address",
          "name": "",
          "type": "address"
        }
      ],
      "stateMutability": "view",
      "type": "function"
    },
    {
      "inputs": [
        {
          "internalType": "uint256",
          "name": "tokenId",
          "type": "uint256"
        }
      ],
      "name": "ownerOf",
      "outputs": [
        {
          "internalType": "address",
          "name": "",
          "type": "address"
        }
      ],
      "stateMutability": "view",
      "type": "function"
    },
    {
      "inputs": [
        {
          "internalType": "uint256",
          "name": "tokenQuantity",
          "type": "uint256"
        }
      ],
      "name": "presaleBuy",
      "outputs": [],
      "stateMutability": "payable",
      "type": "function"
    },
    {
      "inputs": [],
      "name": "presaleLive",
      "outputs": [
        {
          "internalType": "bool",
          "name": "",
          "type": "bool"
        }
      ],
      "stateMutability": "view",
      "type": "function"
    },
    {
      "inputs": [],
      "name": "presalePurchaseLimit",
      "outputs": [
        {
          "internalType": "uint256",
          "name": "",
          "type": "uint256"
        }
      ],
      "stateMutability": "view",
      "type": "function"
    },
    {
      "inputs": [
        {
          "internalType": "address",
          "name": "addr",
          "type": "address"
        }
      ],
      "name": "presalePurchasedCount",
      "outputs": [
        {
          "internalType": "uint256",
          "name": "",
          "type": "uint256"
        }
      ],
      "stateMutability": "view",
      "type": "function"
    },
    {
      "inputs": [
        {
          "internalType": "address",
          "name": "",
          "type": "address"
        }
      ],
      "name": "presalerList",
      "outputs": [
        {
          "internalType": "bool",
          "name": "",
          "type": "bool"
        }
      ],
      "stateMutability": "view",
      "type": "function"
    },
    {
      "inputs": [
        {
          "internalType": "address",
          "name": "",
          "type": "address"
        }
      ],
      "name": "presalerListPurchases",
      "outputs": [
        {
          "internalType": "uint256",
          "name": "",
          "type": "uint256"
        }
      ],
      "stateMutability": "view",
      "type": "function"
    },
    {
      "inputs": [],
      "name": "privateAmountMinted",
      "outputs": [
        {
          "internalType": "uint256",
          "name": "",
          "type": "uint256"
        }
      ],
      "stateMutability": "view",
      "type": "function"
    },
    {
      "inputs": [],
      "name": "publicAmountMinted",
      "outputs": [
        {
          "internalType": "uint256",
          "name": "",
          "type": "uint256"
        }
      ],
      "stateMutability": "view",
      "type": "function"
    },
    {
      "inputs": [
        {
          "internalType": "address[]",
          "name": "entries",
          "type": "address[]"
        }
      ],
      "name": "removeFromPresaleList",
      "outputs": [],
      "stateMutability": "nonpayable",
      "type": "function"
    },
    {
      "inputs": [],
      "name": "renounceOwnership",
      "outputs": [],
      "stateMutability": "nonpayable",
      "type": "function"
    },
    {
      "inputs": [],
      "name": "requested",
      "outputs": [
        {
          "internalType": "uint256",
          "name": "",
          "type": "uint256"
        }
      ],
      "stateMutability": "view",
      "type": "function"
    },
    {
      "inputs": [
        {
          "internalType": "address",
          "name": "from",
          "type": "address"
        },
        {
          "internalType": "address",
          "name": "to",
          "type": "address"
        },
        {
          "internalType": "uint256",
          "name": "tokenId",
          "type": "uint256"
        }
      ],
      "name": "safeTransferFrom",
      "outputs": [],
      "stateMutability": "nonpayable",
      "type": "function"
    },
    {
      "inputs": [
        {
          "internalType": "address",
          "name": "from",
          "type": "address"
        },
        {
          "internalType": "address",
          "name": "to",
          "type": "address"
        },
        {
          "internalType": "uint256",
          "name": "tokenId",
          "type": "uint256"
        },
        {
          "internalType": "bytes",
          "name": "_data",
          "type": "bytes"
        }
      ],
      "name": "safeTransferFrom",
      "outputs": [],
      "stateMutability": "nonpayable",
      "type": "function"
    },
    {
      "inputs": [],
      "name": "saleLive",
      "outputs": [
        {
          "internalType": "bool",
          "name": "",
          "type": "bool"
        }
      ],
      "stateMutability": "view",
      "type": "function"
    },
    {
      "inputs": [
        {
          "internalType": "address",
          "name": "operator",
          "type": "address"
        },
        {
          "internalType": "bool",
          "name": "approved",
          "type": "bool"
        }
      ],
      "name": "setApprovalForAll",
      "outputs": [],
      "stateMutability": "nonpayable",
      "type": "function"
    },
    {
      "inputs": [
        {
          "internalType": "string",
          "name": "URI",
          "type": "string"
        }
      ],
      "name": "setBaseURI",
      "outputs": [],
      "stateMutability": "nonpayable",
      "type": "function"
    },
    {
      "inputs": [
        {
          "internalType": "bytes4",
          "name": "interfaceId",
          "type": "bytes4"
        }
      ],
      "name": "supportsInterface",
      "outputs": [
        {
          "internalType": "bool",
          "name": "",
          "type": "bool"
        }
      ],
      "stateMutability": "view",
      "type": "function"
    },
    {
      "inputs": [],
      "name": "symbol",
      "outputs": [
        {
          "internalType": "string",
          "name": "",
          "type": "string"
        }
      ],
      "stateMutability": "view",
      "type": "function"
    },
    {
      "inputs": [],
      "name": "togglePresaleStatus",
      "outputs": [],
      "stateMutability": "nonpayable",
      "type": "function"
    },
    {
      "inputs": [],
      "name": "toggleSaleStatus",
      "outputs": [],
      "stateMutability": "nonpayable",
      "type": "function"
    },
    {
      "inputs": [
        {
          "internalType": "uint256",
          "name": "index",
          "type": "uint256"
        }
      ],
      "name": "tokenByIndex",
      "outputs": [
        {
          "internalType": "uint256",
          "name": "",
          "type": "uint256"
        }
      ],
      "stateMutability": "view",
      "type": "function"
    },
    {
      "inputs": [
        {
          "internalType": "address",
          "name": "owner",
          "type": "address"
        },
        {
          "internalType": "uint256",
          "name": "index",
          "type": "uint256"
        }
      ],
      "name": "tokenOfOwnerByIndex",
      "outputs": [
        {
          "internalType": "uint256",
          "name": "",
          "type": "uint256"
        }
      ],
      "stateMutability": "view",
      "type": "function"
    },
    {
      "inputs": [
        {
          "internalType": "uint256",
          "name": "tokenId",
          "type": "uint256"
        }
      ],
      "name": "tokenURI",
      "outputs": [
        {
          "internalType": "string",
          "name": "",
          "type": "string"
        }
      ],
      "stateMutability": "view",
      "type": "function"
    },
    {
      "inputs": [],
      "name": "totalSupply",
      "outputs": [
        {
          "internalType": "uint256",
          "name": "",
          "type": "uint256"
        }
      ],
      "stateMutability": "view",
      "type": "function"
    },
    {
      "inputs": [
        {
          "internalType": "address",
          "name": "from",
          "type": "address"
        },
        {
          "internalType": "address",
          "name": "to",
          "type": "address"
        },
        {
          "internalType": "uint256",
          "name": "tokenId",
          "type": "uint256"
        }
      ],
      "name": "transferFrom",
      "outputs": [],
      "stateMutability": "nonpayable",
      "type": "function"
    },
    {
      "inputs": [
        {
          "internalType": "address",
          "name": "newOwner",
          "type": "address"
        }
      ],
      "name": "transferOwnership",
      "outputs": [],
      "stateMutability": "nonpayable",
      "type": "function"
    }
  ],
  "bytecode": "0x60e060405260376080818152906200346560a03980516200002991600c91602090910190620002c8565b5060026013553480156200003c57600080fd5b50604080518082018252600b81526a151a19511bdb5955195cdd60aa1b60208083019190915282518084019093526003835262444f4d60e81b9083015290620000956301ffc9a760e01b6001600160e01b036200022516565b8151620000aa906006906020850190620002c8565b508051620000c0906007906020840190620002c8565b50620000dc6380ac58cd60e01b6001600160e01b036200022516565b620000f7635b5e139f60e01b6001600160e01b036200022516565b6200011263780e9d6360e01b6001600160e01b036200022516565b50600090506200012a6001600160e01b03620002aa16565b600a80546001600160a01b0319166001600160a01b038316908117909155604051919250906000907f8be0079c531659141344cd1fd0a4f28419497f9722a3daafe3b4186f6b6457e0908290a350600c8054604080516020601f600260001961010060018816150201909516949094049384018190048102820181019092528281526200021f93909290918301828280156200020a5780601f10620001de576101008083540402835291602001916200020a565b820191906000526020600020905b815481529060010190602001808311620001ec57829003601f168201915b50506001600160e01b03620002af1692505050565b6200036a565b6001600160e01b0319808216141562000285576040805162461bcd60e51b815260206004820152601c60248201527f4552433136353a20696e76616c696420696e7465726661636520696400000000604482015290519081900360640190fd5b6001600160e01b0319166000908152602081905260409020805460ff19166001179055565b335b90565b8051620002c4906009906020840190620002c8565b5050565b828054600181600116156101000203166002900490600052602060002090601f016020900481019282601f106200030b57805160ff19168380011785556200033b565b828001600101855582156200033b579182015b828111156200033b5782518255916020019190600101906200031e565b50620003499291506200034d565b5090565b620002ac91905b8082111562000349576000815560010162000354565b6130eb806200037a6000396000f3fe6080604052600436106102885760003560e01c80637bffb4ce1161015a578063a22cb465116100c1578063d96a094a1161007a578063d96a094a14610ad2578063e081b78114610aef578063e582cf1514610b04578063e985e9c514610b19578063f2fde38b14610b54578063f474307014610b8757610288565b8063a22cb465146108f7578063b179e06014610932578063b88d4fde146109ad578063c1179a7f14610a7e578063c87b56dd14610a93578063cf30901214610abd57610288565b8063940f1ada11610113578063940f1ada1461081f57806395d89b4114610834578063989bdbb6146108495780639bf803161461085e5780639cf2e8d6146108915780639e273b2f146108c457610288565b80637bffb4ce14610799578063815f7bbd146107ae57806383a9e049146107cb5780638d859f3e146107e05780638da5cb5b146107f5578063919922061461080a57610288565b80634f6ccce7116101fe5780636352211e116101b75780636352211e146106825780636c0360eb146106ac57806370a08231146106c1578063715018a6146106f45780637204a3c91461070957806376e812631461078457610288565b80634f6ccce71461056b57806355072fef1461059557806355f804b3146105aa57806359a12ad5146106255780635ce7af1f1461063a578063617d11261461066d57610288565b8063163e1e6111610250578063163e1e61146103f557806318160ddd1461047057806323b872dd146104975780632f745c59146104da5780633fae96511461051357806342842e0e1461052857610288565b806301ffc9a71461028d578063049c5c49146102d557806306fdde03146102ec578063081812fc14610376578063095ea7b3146103bc575b600080fd5b34801561029957600080fd5b506102c1600480360360208110156102b057600080fd5b50356001600160e01b031916610b9c565b604080519115158252519081900360200190f35b3480156102e157600080fd5b506102ea610bbf565b005b3480156102f857600080fd5b50610301610c34565b6040805160208082528351818301528351919283929083019185019080838360005b8381101561033b578181015183820152602001610323565b50505050905090810190601f1680156103685780820380516001836020036101000a031916815260200191505b509250505060405180910390f35b34801561038257600080fd5b506103a06004803603602081101561039957600080fd5b5035610ccb565b604080516001600160a01b039092168252519081900360200190f35b3480156103c857600080fd5b506102ea600480360360408110156103df57600080fd5b506001600160a01b038135169060200135610d2d565b34801561040157600080fd5b506102ea6004803603602081101561041857600080fd5b810190602081018135600160201b81111561043257600080fd5b82018360208201111561044457600080fd5b803590602001918460208302840111600160201b8311171561046557600080fd5b509092509050610e08565b34801561047c57600080fd5b50610485610f43565b60408051918252519081900360200190f35b3480156104a357600080fd5b506102ea600480360360608110156104ba57600080fd5b506001600160a01b03813581169160208101359091169060400135610f54565b3480156104e657600080fd5b50610485600480360360408110156104fd57600080fd5b506001600160a01b038135169060200135610fab565b34801561051f57600080fd5b50610485610fdc565b34801561053457600080fd5b506102ea6004803603606081101561054b57600080fd5b506001600160a01b03813581169160208101359091169060400135610fe2565b34801561057757600080fd5b506104856004803603602081101561058e57600080fd5b5035610ffd565b3480156105a157600080fd5b50610485611019565b3480156105b657600080fd5b506102ea600480360360208110156105cd57600080fd5b810190602081018135600160201b8111156105e757600080fd5b8201836020820111156105f957600080fd5b803590602001918460018302840111600160201b8311171561061a57600080fd5b50909250905061101f565b34801561063157600080fd5b5061048561110f565b34801561064657600080fd5b506104856004803603602081101561065d57600080fd5b50356001600160a01b0316611115565b34801561067957600080fd5b50610485611130565b34801561068e57600080fd5b506103a0600480360360208110156106a557600080fd5b5035611136565b3480156106b857600080fd5b50610301611164565b3480156106cd57600080fd5b50610485600480360360208110156106e457600080fd5b50356001600160a01b03166111c5565b34801561070057600080fd5b506102ea61122d565b34801561071557600080fd5b506102ea6004803603602081101561072c57600080fd5b810190602081018135600160201b81111561074657600080fd5b82018360208201111561075857600080fd5b803590602001918460208302840111600160201b8311171561077957600080fd5b5090925090506112cf565b34801561079057600080fd5b50610485611434565b3480156107a557600080fd5b506102ea611439565b6102ea600480360360208110156107c457600080fd5b50356114a5565b3480156107d757600080fd5b506102c16116d0565b3480156107ec57600080fd5b506104856116d9565b34801561080157600080fd5b506103a06116e5565b34801561081657600080fd5b506104856116f4565b34801561082b57600080fd5b506104856116f9565b34801561084057600080fd5b506103016116ff565b34801561085557600080fd5b506102ea611760565b34801561086a57600080fd5b506104856004803603602081101561088157600080fd5b50356001600160a01b03166117cb565b34801561089d57600080fd5b506102c1600480360360208110156108b457600080fd5b50356001600160a01b03166117dd565b3480156108d057600080fd5b506102c1600480360360208110156108e757600080fd5b50356001600160a01b03166117f2565b34801561090357600080fd5b506102ea6004803603604081101561091a57600080fd5b506001600160a01b0381351690602001351515611810565b34801561093e57600080fd5b506102ea6004803603602081101561095557600080fd5b810190602081018135600160201b81111561096f57600080fd5b82018360208201111561098157600080fd5b803590602001918460208302840111600160201b831117156109a257600080fd5b509092509050611915565b3480156109b957600080fd5b506102ea600480360360808110156109d057600080fd5b6001600160a01b03823581169260208101359091169160408201359190810190608081016060820135600160201b811115610a0a57600080fd5b820183602082011115610a1c57600080fd5b803590602001918460018302840111600160201b83111715610a3d57600080fd5b91908080601f016020809104026020016040519081016040528093929190818152602001838380828437600092019190915250929550611a7b945050505050565b348015610a8a57600080fd5b50610485611ad9565b348015610a9f57600080fd5b5061030160048036036020811015610ab657600080fd5b5035611adf565b348015610ac957600080fd5b506102c1611d86565b6102ea60048036036020811015610ae857600080fd5b5035611d95565b348015610afb57600080fd5b506102c1611f83565b348015610b1057600080fd5b50610485611f91565b348015610b2557600080fd5b506102c160048036036040811015610b3c57600080fd5b506001600160a01b0381358116916020013516611f97565b348015610b6057600080fd5b506102ea60048036036020811015610b7757600080fd5b50356001600160a01b0316611fc5565b348015610b9357600080fd5b506104856120be565b6001600160e01b0319811660009081526020819052604090205460ff165b919050565b610bc76120c4565b600a546001600160a01b03908116911614610c17576040805162461bcd60e51b81526020600482018190526024820152600080516020612fc8833981519152604482015290519081900360640190fd5b6014805461ff001981166101009182900460ff1615909102179055565b60068054604080516020601f6002600019610100600188161502019095169490940493840181900481028201810190925282815260609390929091830182828015610cc05780601f10610c9557610100808354040283529160200191610cc0565b820191906000526020600020905b815481529060010190602001808311610ca357829003601f168201915b505050505090505b90565b6000610cd6826120c8565b610d115760405162461bcd60e51b815260040180806020018281038252602c815260200180612f9c602c913960400191505060405180910390fd5b506000908152600460205260409020546001600160a01b031690565b6000610d3882611136565b9050806001600160a01b0316836001600160a01b03161415610d8b5760405162461bcd60e51b81526004018080602001828103825260218152602001806130646021913960400191505060405180910390fd5b806001600160a01b0316610d9d6120c4565b6001600160a01b03161480610dbe5750610dbe81610db96120c4565b611f97565b610df95760405162461bcd60e51b8152600401808060200182810382526038815260200180612eef6038913960400191505060405180910390fd5b610e0383836120db565b505050565b610e106120c4565b600a546001600160a01b03908116911614610e60576040805162461bcd60e51b81526020600482018190526024820152600080516020612fc8833981519152604482015290519081900360640190fd5b6122b881610e6c610f43565b011115610eaf576040805162461bcd60e51b815260206004820152600c60248201526b4f55545f4f465f53544f434b60a01b604482015290519081900360640190fd5b60105460589082011115610ef8576040805162461bcd60e51b815260206004820152600b60248201526a47494654535f454d50545960a81b604482015290519081900360640190fd5b60005b81811015610e0357601080546001019055610f3b838383818110610f1b57fe5b905060200201356001600160a01b0316610f33610f43565b600101612149565b600101610efb565b6000610f4f6002612163565b905090565b610f65610f5f6120c4565b8261216e565b610fa05760405162461bcd60e51b81526004018080602001828103825260318152602001806130856031913960400191505060405180910390fd5b610e03838383612212565b6001600160a01b0382166000908152600160205260408120610fd3908363ffffffff61237016565b90505b92915050565b600f5481565b610e0383838360405180602001604052806000815250611a7b565b60008061101160028463ffffffff61237c16565b509392505050565b61032081565b6110276120c4565b600a546001600160a01b03908116911614611077576040805162461bcd60e51b81526020600482018190526024820152600080516020612fc8833981519152604482015290519081900360640190fd5b60145462010000900460ff16156110bf5760405162461bcd60e51b81526004018080602001828103825260248152602001806130406024913960400191505060405180910390fd5b6110cb600c8383612d1e565b5061110b82828080601f01602080910402602001604051908101604052809392919081815260200183838082843760009201919091525061239892505050565b5050565b60125481565b6001600160a01b03166000908152600e602052604090205490565b6122b881565b6000610fd682604051806060016040528060298152602001612f51602991396002919063ffffffff6123ab16565b60098054604080516020601f6002600019610100600188161502019095169490940493840181900481028201810190925282815260609390929091830182828015610cc05780601f10610c9557610100808354040283529160200191610cc0565b60006001600160a01b03821661120c5760405162461bcd60e51b815260040180806020018281038252602a815260200180612f27602a913960400191505060405180910390fd5b6001600160a01b0382166000908152600160205260409020610fd690612163565b6112356120c4565b600a546001600160a01b03908116911614611285576040805162461bcd60e51b81526020600482018190526024820152600080516020612fc8833981519152604482015290519081900360640190fd5b600a546040516000916001600160a01b0316907f8be0079c531659141344cd1fd0a4f28419497f9722a3daafe3b4186f6b6457e0908390a3600a80546001600160a01b0319169055565b6112d76120c4565b600a546001600160a01b03908116911614611327576040805162461bcd60e51b81526020600482018190526024820152600080516020612fc8833981519152604482015290519081900360640190fd5b60005b81811015610e0357600083838381811061134057fe5b905060200201356001600160a01b0316905060006001600160a01b0316816001600160a01b031614156113a9576040805162461bcd60e51b815260206004820152600c60248201526b4e554c4c5f4144445245535360a01b604482015290519081900360640190fd5b6001600160a01b0381166000908152600d602052604090205460ff1615611409576040805162461bcd60e51b815260206004820152600f60248201526e4455504c49434154455f454e54525960881b604482015290519081900360640190fd5b6001600160a01b03166000908152600d60205260409020805460ff191660019081179091550161132a565b600581565b6114416120c4565b600a546001600160a01b03908116911614611491576040805162461bcd60e51b81526020600482018190526024820152600080516020612fc8833981519152604482015290519081900360640190fd5b6014805460ff19811660ff90911615179055565b601454610100900460ff161580156114bf575060145460ff165b611501576040805162461bcd60e51b815260206004820152600e60248201526d14149154d0531157d0d313d4d15160921b604482015290519081900360640190fd5b336000908152600d602052604090205460ff16611555576040805162461bcd60e51b815260206004820152600d60248201526c1393d517d45550531251925151609a1b604482015290519081900360640190fd5b6122b8611560610f43565b106115a1576040805162461bcd60e51b815260206004820152600c60248201526b4f55545f4f465f53544f434b60a01b604482015290519081900360640190fd5b610320816012540111156115ed576040805162461bcd60e51b815260206004820152600e60248201526d4558434545445f5052495641544560901b604482015290519081900360640190fd5b601354336000908152600e602052604090205482011115611644576040805162461bcd60e51b815260206004820152600c60248201526b4558434545445f414c4c4f4360a01b604482015290519081900360640190fd5b348167011c37937e080000021115611696576040805162461bcd60e51b815260206004820152601060248201526f0929ca6aa8c8c9286928a9ca8be8aa8960831b604482015290519081900360640190fd5b6012805482019055336000908152600e602052604081208054830190555b8181101561110b576116c833610f33610f43565b6001016116b4565b60145460ff1681565b67011c37937e08000081565b600a546001600160a01b031690565b605881565b60115481565b60078054604080516020601f6002600019610100600188161502019095169490940493840181900481028201810190925282815260609390929091830182828015610cc05780601f10610c9557610100808354040283529160200191610cc0565b6117686120c4565b600a546001600160a01b039081169116146117b8576040805162461bcd60e51b81526020600482018190526024820152600080516020612fc8833981519152604482015290519081900360640190fd5b6014805462ff0000191662010000179055565b600e6020526000908152604090205481565b600d6020526000908152604090205460ff1681565b6001600160a01b03166000908152600d602052604090205460ff1690565b6118186120c4565b6001600160a01b0316826001600160a01b0316141561187e576040805162461bcd60e51b815260206004820152601960248201527f4552433732313a20617070726f766520746f2063616c6c657200000000000000604482015290519081900360640190fd5b806005600061188b6120c4565b6001600160a01b03908116825260208083019390935260409182016000908120918716808252919093529120805460ff1916921515929092179091556118cf6120c4565b60408051841515815290516001600160a01b0392909216917f17307eab39ab6107e8899845ad3d59bd9653f200f220920489ca2b5937696c319181900360200190a35050565b61191d6120c4565b600a546001600160a01b0390811691161461196d576040805162461bcd60e51b81526020600482018190526024820152600080516020612fc8833981519152604482015290519081900360640190fd5b60005b81811015610e0357600083838381811061198657fe5b905060200201356001600160a01b0316905060006001600160a01b0316816001600160a01b031614156119ef576040805162461bcd60e51b815260206004820152600c60248201526b4e554c4c5f4144445245535360a01b604482015290519081900360640190fd5b6001600160a01b0381166000908152600d602052604090205460ff16611a54576040805162461bcd60e51b815260206004820152601560248201527414149154d053115497d113d154d39517d1561254d5605a1b604482015290519081900360640190fd5b6001600160a01b03166000908152600d60205260409020805460ff19169055600101611970565b611a8c611a866120c4565b8361216e565b611ac75760405162461bcd60e51b81526004018080602001828103825260318152602001806130856031913960400191505060405180910390fd5b611ad3848484846123c2565b50505050565b611f4081565b6060611aea826120c8565b611b255760405162461bcd60e51b815260040180806020018281038252602f815260200180613011602f913960400191505060405180910390fd5b60008281526008602090815260409182902080548351601f6002600019610100600186161502019093169290920491820184900484028101840190945280845260609392830182828015611bba5780601f10611b8f57610100808354040283529160200191611bba565b820191906000526020600020905b815481529060010190602001808311611b9d57829003601f168201915b505060095493945050505060026000196101006001841615020190911604611be3579050610bba565b805115611cb4576009816040516020018083805460018160011615610100020316600290048015611c4b5780601f10611c29576101008083540402835291820191611c4b565b820191906000526020600020905b815481529060010190602001808311611c37575b5050825160208401908083835b60208310611c775780518252601f199092019160209182019101611c58565b6001836020036101000a03801982511681845116808217855250505050505090500192505050604051602081830303815290604052915050610bba565b6009611cbf84612414565b6040516020018083805460018160011615610100020316600290048015611d1d5780601f10611cfb576101008083540402835291820191611d1d565b820191906000526020600020905b815481529060010190602001808311611d09575b5050825160208401908083835b60208310611d495780518252601f199092019160209182019101611d2a565b6001836020036101000a03801982511681845116808217855250505050505090500192505050604051602081830303815290604052915050919050565b60145462010000900460ff1681565b601454610100900460ff16611ddf576040805162461bcd60e51b815260206004820152600b60248201526a14d0531157d0d313d4d15160aa1b604482015290519081900360640190fd5b60145460ff1615611e26576040805162461bcd60e51b815260206004820152600c60248201526b4f4e4c595f50524553414c4560a01b604482015290519081900360640190fd5b6122b8611e31610f43565b10611e72576040805162461bcd60e51b815260206004820152600c60248201526b4f55545f4f465f53544f434b60a01b604482015290519081900360640190fd5b611f4081601154011115611ebd576040805162461bcd60e51b815260206004820152600d60248201526c4558434545445f5055424c494360981b604482015290519081900360640190fd5b6005811115611f09576040805162461bcd60e51b8152602060048201526013602482015272115610d1515117d4d594d7d4115497d3525395606a1b604482015290519081900360640190fd5b348167011c37937e080000021115611f5b576040805162461bcd60e51b815260206004820152601060248201526f0929ca6aa8c8c9286928a9ca8be8aa8960831b604482015290519081900360640190fd5b60005b8181101561110b57601180546001019055611f7b33610f33610f43565b600101611f5e565b601454610100900460ff1681565b60105481565b6001600160a01b03918216600090815260056020908152604080832093909416825291909152205460ff1690565b611fcd6120c4565b600a546001600160a01b0390811691161461201d576040805162461bcd60e51b81526020600482018190526024820152600080516020612fc8833981519152604482015290519081900360640190fd5b6001600160a01b0381166120625760405162461bcd60e51b8152600401808060200182810382526026815260200180612e796026913960400191505060405180910390fd5b600a546040516001600160a01b038084169216907f8be0079c531659141344cd1fd0a4f28419497f9722a3daafe3b4186f6b6457e090600090a3600a80546001600160a01b0319166001600160a01b0392909216919091179055565b60135481565b3390565b6000610fd660028363ffffffff6124ef16565b600081815260046020526040902080546001600160a01b0319166001600160a01b038416908117909155819061211082611136565b6001600160a01b03167f8c5be1e5ebec7d5bd14f71427d1e84f3dd0314c0f7b2291e5b200ac8c7c3b92560405160405180910390a45050565b61110b8282604051806020016040528060008152506124fb565b6000610fd68261254d565b6000612179826120c8565b6121b45760405162461bcd60e51b815260040180806020018281038252602c815260200180612ec3602c913960400191505060405180910390fd5b60006121bf83611136565b9050806001600160a01b0316846001600160a01b031614806121fa5750836001600160a01b03166121ef84610ccb565b6001600160a01b0316145b8061220a575061220a8185611f97565b949350505050565b826001600160a01b031661222582611136565b6001600160a01b03161461226a5760405162461bcd60e51b8152600401808060200182810382526029815260200180612fe86029913960400191505060405180910390fd5b6001600160a01b0382166122af5760405162461bcd60e51b8152600401808060200182810382526024815260200180612e9f6024913960400191505060405180910390fd5b6122ba838383610e03565b6122c56000826120db565b6001600160a01b03831660009081526001602052604090206122ed908263ffffffff61255116565b506001600160a01b0382166000908152600160205260409020612316908263ffffffff61255d16565b506123296002828463ffffffff61256916565b5080826001600160a01b0316846001600160a01b03167fddf252ad1be2c89b69c2b068fc378daa952ba7f163c4a11628f55a4df523b3ef60405160405180910390a4505050565b6000610fd3838361257f565b600080808061238b86866125e3565b9097909650945050505050565b805161110b906009906020840190612d9c565b60006123b884848461265e565b90505b9392505050565b6123cd848484612212565b6123d984848484612728565b611ad35760405162461bcd60e51b8152600401808060200182810382526032815260200180612e476032913960400191505060405180910390fd5b60608161243957506040805180820190915260018152600360fc1b6020820152610bba565b8160005b811561245157600101600a8204915061243d565b60608167ffffffffffffffff8111801561246a57600080fd5b506040519080825280601f01601f191660200182016040528015612495576020820181803683370190505b50859350905060001982015b83156124e657600a840660300160f81b828280600190039350815181106124c457fe5b60200101906001600160f81b031916908160001a905350600a840493506124a1565b50949350505050565b6000610fd383836128a8565b61250583836128c0565b6125126000848484612728565b610e035760405162461bcd60e51b8152600401808060200182810382526032815260200180612e476032913960400191505060405180910390fd5b5490565b6000610fd383836129fa565b6000610fd38383612ac0565b60006123b884846001600160a01b038516612b0a565b815460009082106125c15760405162461bcd60e51b8152600401808060200182810382526022815260200180612e256022913960400191505060405180910390fd5b8260000182815481106125d057fe5b9060005260206000200154905092915050565b8154600090819083106126275760405162461bcd60e51b8152600401808060200182810382526022815260200180612f7a6022913960400191505060405180910390fd5b600084600001848154811061263857fe5b906000526020600020906002020190508060000154816001015492509250509250929050565b600082815260018401602052604081205482816126f95760405162461bcd60e51b81526004018080602001828103825283818151815260200191508051906020019080838360005b838110156126be5781810151838201526020016126a6565b50505050905090810190601f1680156126eb5780820380516001836020036101000a031916815260200191505b509250505060405180910390fd5b5084600001600182038154811061270c57fe5b9060005260206000209060020201600101549150509392505050565b600061273c846001600160a01b0316612ba1565b6127485750600161220a565b606061286e630a85bd0160e11b61275d6120c4565b88878760405160240180856001600160a01b03166001600160a01b03168152602001846001600160a01b03166001600160a01b0316815260200183815260200180602001828103825283818151815260200191508051906020019080838360005b838110156127d65781810151838201526020016127be565b50505050905090810190601f1680156128035780820380516001836020036101000a031916815260200191505b5095505050505050604051602081830303815290604052906001600160e01b0319166020820180516001600160e01b038381831617835250505050604051806060016040528060328152602001612e47603291396001600160a01b038816919063ffffffff612ba716565b9050600081806020019051602081101561288757600080fd5b50516001600160e01b031916630a85bd0160e11b1492505050949350505050565b60009081526001919091016020526040902054151590565b6001600160a01b03821661291b576040805162461bcd60e51b815260206004820181905260248201527f4552433732313a206d696e7420746f20746865207a65726f2061646472657373604482015290519081900360640190fd5b612924816120c8565b15612976576040805162461bcd60e51b815260206004820152601c60248201527f4552433732313a20746f6b656e20616c7265616479206d696e74656400000000604482015290519081900360640190fd5b61298260008383610e03565b6001600160a01b03821660009081526001602052604090206129aa908263ffffffff61255d16565b506129bd6002828463ffffffff61256916565b5060405181906001600160a01b038416906000907fddf252ad1be2c89b69c2b068fc378daa952ba7f163c4a11628f55a4df523b3ef908290a45050565b60008181526001830160205260408120548015612ab65783546000198083019190810190600090879083908110612a2d57fe5b9060005260206000200154905080876000018481548110612a4a57fe5b600091825260208083209091019290925582815260018981019092526040902090840190558654879080612a7a57fe5b60019003818190600052602060002001600090559055866001016000878152602001908152602001600020600090556001945050505050610fd6565b6000915050610fd6565b6000612acc83836128a8565b612b0257508154600181810184556000848152602080822090930184905584548482528286019093526040902091909155610fd6565b506000610fd6565b600082815260018401602052604081205480612b6f5750506040805180820182528381526020808201848152865460018181018955600089815284812095516002909302909501918255915190820155865486845281880190925292909120556123bb565b82856000016001830381548110612b8257fe5b90600052602060002090600202016001018190555060009150506123bb565b3b151590565b60606123b884846000856060612bbc85612ba1565b612c0d576040805162461bcd60e51b815260206004820152601d60248201527f416464726573733a2063616c6c20746f206e6f6e2d636f6e7472616374000000604482015290519081900360640190fd5b60006060866001600160a01b031685876040518082805190602001908083835b60208310612c4c5780518252601f199092019160209182019101612c2d565b6001836020036101000a03801982511681845116808217855250505050505090500191505060006040518083038185875af1925050503d8060008114612cae576040519150601f19603f3d011682016040523d82523d6000602084013e612cb3565b606091505b50915091508115612cc757915061220a9050565b805115612cd75780518082602001fd5b60405162461bcd60e51b81526020600482018181528651602484015286518793919283926044019190850190808383600083156126be5781810151838201526020016126a6565b828054600181600116156101000203166002900490600052602060002090601f016020900481019282601f10612d5f5782800160ff19823516178555612d8c565b82800160010185558215612d8c579182015b82811115612d8c578235825591602001919060010190612d71565b50612d98929150612e0a565b5090565b828054600181600116156101000203166002900490600052602060002090601f016020900481019282601f10612ddd57805160ff1916838001178555612d8c565b82800160010185558215612d8c579182015b82811115612d8c578251825591602001919060010190612def565b610cc891905b80821115612d985760008155600101612e1056fe456e756d657261626c655365743a20696e646578206f7574206f6620626f756e64734552433732313a207472616e7366657220746f206e6f6e20455243373231526563656976657220696d706c656d656e7465724f776e61626c653a206e6577206f776e657220697320746865207a65726f20616464726573734552433732313a207472616e7366657220746f20746865207a65726f20616464726573734552433732313a206f70657261746f7220717565727920666f72206e6f6e6578697374656e7420746f6b656e4552433732313a20617070726f76652063616c6c6572206973206e6f74206f776e6572206e6f7220617070726f76656420666f7220616c6c4552433732313a2062616c616e636520717565727920666f7220746865207a65726f20616464726573734552433732313a206f776e657220717565727920666f72206e6f6e6578697374656e7420746f6b656e456e756d657261626c654d61703a20696e646578206f7574206f6620626f756e64734552433732313a20617070726f76656420717565727920666f72206e6f6e6578697374656e7420746f6b656e4f776e61626c653a2063616c6c6572206973206e6f7420746865206f776e65724552433732313a207472616e73666572206f6620746f6b656e2074686174206973206e6f74206f776e4552433732314d657461646174613a2055524920717565727920666f72206e6f6e6578697374656e7420746f6b656e436f6e7472616374206d65746164617461206d6574686f647320617265206c6f636b65644552433732313a20617070726f76616c20746f2063757272656e74206f776e65724552433732313a207472616e736665722063616c6c6572206973206e6f74206f776e6572206e6f7220617070726f766564a264697066735822122091b9e05104b80c93fd7918550a8c56f8f1739d95fdb18e36516483518c1ec9c164736f6c6343000607003368747470733a2f2f6170692d6e66742d706c616365686f6c6465722e6865726f6b756170702e636f6d2f6170692f6d657461646174612f",
  "linkReferences": {},
  "deployedLinkReferences": {}
}