{
  "address": "0xAb25Bb47aC8dE87C245F9D91f479e8bA210A32e6",
  "abi": [
    {
      "inputs": [],
      "stateMutability": "nonpayable",
      "type": "constructor"
    },
    {
      "anonymous": false,
      "inputs": [
        {
          "indexed": true,
          "internalType": "address",
          "name": "owner",
          "type": "address"
        },
        {
          "indexed": true,
          "internalType": "address",
          "name": "approved",
          "type": "address"
        },
        {
          "indexed": true,
          "internalType": "uint256",
          "name": "tokenId",
          "type": "uint256"
        }
      ],
      "name": "Approval",
      "type": "event"
    },
    {
      "anonymous": false,
      "inputs": [
        {
          "indexed": true,
          "internalType": "address",
          "name": "owner",
          "type": "address"
        },
        {
          "indexed": true,
          "internalType": "address",
          "name": "operator",
          "type": "address"
        },
        {
          "indexed": false,
          "internalType": "bool",
          "name": "approved",
          "type": "bool"
        }
      ],
      "name": "ApprovalForAll",
      "type": "event"
    },
    {
      "anonymous": false,
      "inputs": [
        {
          "indexed": true,
          "internalType": "address",
          "name": "previousOwner",
          "type": "address"
        },
        {
          "indexed": true,
          "internalType": "address",
          "name": "newOwner",
          "type": "address"
        }
      ],
      "name": "OwnershipTransferred",
      "type": "event"
    },
    {
      "anonymous": false,
      "inputs": [
        {
          "indexed": true,
          "internalType": "address",
          "name": "from",
          "type": "address"
        },
        {
          "indexed": true,
          "internalType": "address",
          "name": "to",
          "type": "address"
        },
        {
          "indexed": true,
          "internalType": "uint256",
          "name": "tokenId",
          "type": "uint256"
        }
      ],
      "name": "Transfer",
      "type": "event"
    },
    {
      "inputs": [],
      "name": "GIFT",
      "outputs": [
        {
          "internalType": "uint256",
          "name": "",
          "type": "uint256"
        }
      ],
      "stateMutability": "view",
      "type": "function"
    },
    {
      "inputs": [],
      "name": "LIMIT_PER_MINT",
      "outputs": [
        {
          "internalType": "uint256",
          "name": "",
          "type": "uint256"
        }
      ],
      "stateMutability": "view",
      "type": "function"
    },
    {
      "inputs": [],
      "name": "MAX_SUPPLY_LIMIT",
      "outputs": [
        {
          "internalType": "uint256",
          "name": "",
          "type": "uint256"
        }
      ],
      "stateMutability": "view",
      "type": "function"
    },
    {
      "inputs": [],
      "name": "PRICE",
      "outputs": [
        {
          "internalType": "uint256",
          "name": "",
          "type": "uint256"
        }
      ],
      "stateMutability": "view",
      "type": "function"
    },
    {
      "inputs": [],
      "name": "PRIVATE",
      "outputs": [
        {
          "internalType": "uint256",
          "name": "",
          "type": "uint256"
        }
      ],
      "stateMutability": "view",
      "type": "function"
    },
    {
      "inputs": [],
      "name": "PUBLIC",
      "outputs": [
        {
          "internalType": "uint256",
          "name": "",
          "type": "uint256"
        }
      ],
      "stateMutability": "view",
      "type": "function"
    },
    {
      "inputs": [
        {
          "internalType": "address",
          "name": "to",
          "type": "address"
        },
        {
          "internalType": "uint256",
          "name": "tokenId",
          "type": "uint256"
        }
      ],
      "name": "approve",
      "outputs": [],
      "stateMutability": "nonpayable",
      "type": "function"
    },
    {
      "inputs": [
        {
          "internalType": "address",
          "name": "owner",
          "type": "address"
        }
      ],
      "name": "balanceOf",
      "outputs": [
        {
          "internalType": "uint256",
          "name": "",
          "type": "uint256"
        }
      ],
      "stateMutability": "view",
      "type": "function"
    },
    {
      "inputs": [],
      "name": "baseURI",
      "outputs": [
        {
          "internalType": "string",
          "name": "",
          "type": "string"
        }
      ],
      "stateMutability": "view",
      "type": "function"
    },
    {
      "inputs": [
        {
          "internalType": "uint256",
          "name": "tokenQuantity",
          "type": "uint256"
        }
      ],
      "name": "buy",
      "outputs": [],
      "stateMutability": "payable",
      "type": "function"
    },
    {
      "inputs": [
        {
          "internalType": "uint256",
          "name": "tokenId",
          "type": "uint256"
        }
      ],
      "name": "getApproved",
      "outputs": [
        {
          "internalType": "address",
          "name": "",
          "type": "address"
        }
      ],
      "stateMutability": "view",
      "type": "function"
    },
    {
      "inputs": [
        {
          "internalType": "address[]",
          "name": "receivers",
          "type": "address[]"
        }
      ],
      "name": "gift",
      "outputs": [],
      "stateMutability": "nonpayable",
      "type": "function"
    },
    {
      "inputs": [],
      "name": "giftedAmountMinted",
      "outputs": [
        {
          "internalType": "uint256",
          "name": "",
          "type": "uint256"
        }
      ],
      "stateMutability": "view",
      "type": "function"
    },
    {
      "inputs": [
        {
          "internalType": "address",
          "name": "owner",
          "type": "address"
        },
        {
          "internalType": "address",
          "name": "operator",
          "type": "address"
        }
      ],
      "name": "isApprovedForAll",
      "outputs": [
        {
          "internalType": "bool",
          "name": "",
          "type": "bool"
        }
      ],
      "stateMutability": "view",
      "type": "function"
    },
    {
      "inputs": [],
      "name": "lockMetadata",
      "outputs": [],
      "stateMutability": "nonpayable",
      "type": "function"
    },
    {
      "inputs": [],
      "name": "locked",
      "outputs": [
        {
          "internalType": "bool",
          "name": "",
          "type": "bool"
        }
      ],
      "stateMutability": "view",
      "type": "function"
    },
    {
      "inputs": [],
      "name": "name",
      "outputs": [
        {
          "internalType": "string",
          "name": "",
          "type": "string"
        }
      ],
      "stateMutability": "view",
      "type": "function"
    },
    {
      "inputs": [],
      "name": "owner",
      "outputs": [
        {
          "internalType": "address",
          "name": "",
          "type": "address"
        }
      ],
      "stateMutability": "view",
      "type": "function"
    },
    {
      "inputs": [
        {
          "internalType": "uint256",
          "name": "tokenId",
          "type": "uint256"
        }
      ],
      "name": "ownerOf",
      "outputs": [
        {
          "internalType": "address",
          "name": "",
          "type": "address"
        }
      ],
      "stateMutability": "view",
      "type": "function"
    },
    {
      "inputs": [
        {
          "internalType": "bytes",
          "name": "signature",
          "type": "bytes"
        },
        {
          "internalType": "string",
          "name": "nonce",
          "type": "string"
        },
        {
          "internalType": "uint256",
          "name": "tokenQuantity",
          "type": "uint256"
        }
      ],
      "name": "presaleBuy",
      "outputs": [],
      "stateMutability": "payable",
      "type": "function"
    },
    {
      "inputs": [],
      "name": "presaleLive",
      "outputs": [
        {
          "internalType": "bool",
          "name": "",
          "type": "bool"
        }
      ],
      "stateMutability": "view",
      "type": "function"
    },
    {
      "inputs": [],
      "name": "privateAmountMinted",
      "outputs": [
        {
          "internalType": "uint256",
          "name": "",
          "type": "uint256"
        }
      ],
      "stateMutability": "view",
      "type": "function"
    },
    {
      "inputs": [],
      "name": "publicAmountMinted",
      "outputs": [
        {
          "internalType": "uint256",
          "name": "",
          "type": "uint256"
        }
      ],
      "stateMutability": "view",
      "type": "function"
    },
    {
      "inputs": [],
      "name": "renounceOwnership",
      "outputs": [],
      "stateMutability": "nonpayable",
      "type": "function"
    },
    {
      "inputs": [],
      "name": "requested",
      "outputs": [
        {
          "internalType": "uint256",
          "name": "",
          "type": "uint256"
        }
      ],
      "stateMutability": "view",
      "type": "function"
    },
    {
      "inputs": [
        {
          "internalType": "address",
          "name": "from",
          "type": "address"
        },
        {
          "internalType": "address",
          "name": "to",
          "type": "address"
        },
        {
          "internalType": "uint256",
          "name": "tokenId",
          "type": "uint256"
        }
      ],
      "name": "safeTransferFrom",
      "outputs": [],
      "stateMutability": "nonpayable",
      "type": "function"
    },
    {
      "inputs": [
        {
          "internalType": "address",
          "name": "from",
          "type": "address"
        },
        {
          "internalType": "address",
          "name": "to",
          "type": "address"
        },
        {
          "internalType": "uint256",
          "name": "tokenId",
          "type": "uint256"
        },
        {
          "internalType": "bytes",
          "name": "_data",
          "type": "bytes"
        }
      ],
      "name": "safeTransferFrom",
      "outputs": [],
      "stateMutability": "nonpayable",
      "type": "function"
    },
    {
      "inputs": [],
      "name": "saleLive",
      "outputs": [
        {
          "internalType": "bool",
          "name": "",
          "type": "bool"
        }
      ],
      "stateMutability": "view",
      "type": "function"
    },
    {
      "inputs": [
        {
          "internalType": "address",
          "name": "operator",
          "type": "address"
        },
        {
          "internalType": "bool",
          "name": "approved",
          "type": "bool"
        }
      ],
      "name": "setApprovalForAll",
      "outputs": [],
      "stateMutability": "nonpayable",
      "type": "function"
    },
    {
      "inputs": [
        {
          "internalType": "string",
          "name": "URI",
          "type": "string"
        }
      ],
      "name": "setBaseURI",
      "outputs": [],
      "stateMutability": "nonpayable",
      "type": "function"
    },
    {
      "inputs": [
        {
          "internalType": "bytes4",
          "name": "interfaceId",
          "type": "bytes4"
        }
      ],
      "name": "supportsInterface",
      "outputs": [
        {
          "internalType": "bool",
          "name": "",
          "type": "bool"
        }
      ],
      "stateMutability": "view",
      "type": "function"
    },
    {
      "inputs": [],
      "name": "symbol",
      "outputs": [
        {
          "internalType": "string",
          "name": "",
          "type": "string"
        }
      ],
      "stateMutability": "view",
      "type": "function"
    },
    {
      "inputs": [],
      "name": "togglePresaleStatus",
      "outputs": [],
      "stateMutability": "nonpayable",
      "type": "function"
    },
    {
      "inputs": [],
      "name": "toggleSaleStatus",
      "outputs": [],
      "stateMutability": "nonpayable",
      "type": "function"
    },
    {
      "inputs": [
        {
          "internalType": "uint256",
          "name": "index",
          "type": "uint256"
        }
      ],
      "name": "tokenByIndex",
      "outputs": [
        {
          "internalType": "uint256",
          "name": "",
          "type": "uint256"
        }
      ],
      "stateMutability": "view",
      "type": "function"
    },
    {
      "inputs": [
        {
          "internalType": "address",
          "name": "owner",
          "type": "address"
        },
        {
          "internalType": "uint256",
          "name": "index",
          "type": "uint256"
        }
      ],
      "name": "tokenOfOwnerByIndex",
      "outputs": [
        {
          "internalType": "uint256",
          "name": "",
          "type": "uint256"
        }
      ],
      "stateMutability": "view",
      "type": "function"
    },
    {
      "inputs": [
        {
          "internalType": "uint256",
          "name": "tokenId",
          "type": "uint256"
        }
      ],
      "name": "tokenURI",
      "outputs": [
        {
          "internalType": "string",
          "name": "",
          "type": "string"
        }
      ],
      "stateMutability": "view",
      "type": "function"
    },
    {
      "inputs": [],
      "name": "totalSupply",
      "outputs": [
        {
          "internalType": "uint256",
          "name": "",
          "type": "uint256"
        }
      ],
      "stateMutability": "view",
      "type": "function"
    },
    {
      "inputs": [
        {
          "internalType": "address",
          "name": "from",
          "type": "address"
        },
        {
          "internalType": "address",
          "name": "to",
          "type": "address"
        },
        {
          "internalType": "uint256",
          "name": "tokenId",
          "type": "uint256"
        }
      ],
      "name": "transferFrom",
      "outputs": [],
      "stateMutability": "nonpayable",
      "type": "function"
    },
    {
      "inputs": [
        {
          "internalType": "address",
          "name": "newOwner",
          "type": "address"
        }
      ],
      "name": "transferOwnership",
      "outputs": [],
      "stateMutability": "nonpayable",
      "type": "function"
    }
  ],
  "transactionHash": "0x1d0f36eac028a1f0251dd24b18b81bd0c782f603d86977d84c998ba785101971",
  "args": [],
  "solcInputHash": "63946178c7ca0a7475728286592ace7b",
  "bytecode": "0x600b80546001600160a01b031916737e3999b106e4ef472e569b772bf7f7647d8f26ba17905560e060405260376080818152906200342760a03980516200004f91600d91602090910190620002e8565b503480156200005d57600080fd5b506040805180820182526008815267546f74616c69747960c01b6020808301919091528251808401909352600583526429b7b630b960d91b9083015290620000b56301ffc9a760e01b6001600160e01b036200024516565b8151620000ca906006906020850190620002e8565b508051620000e0906007906020840190620002e8565b50620000fc6380ac58cd60e01b6001600160e01b036200024516565b62000117635b5e139f60e01b6001600160e01b036200024516565b6200013263780e9d6360e01b6001600160e01b036200024516565b50600090506200014a6001600160e01b03620002ca16565b600a80546001600160a01b0319166001600160a01b038316908117909155604051919250906000907f8be0079c531659141344cd1fd0a4f28419497f9722a3daafe3b4186f6b6457e0908290a350600d8054604080516020601f600260001961010060018816150201909516949094049384018190048102820181019092528281526200023f93909290918301828280156200022a5780601f10620001fe576101008083540402835291602001916200022a565b820191906000526020600020905b8154815290600101906020018083116200020c57829003601f168201915b50506001600160e01b03620002cf1692505050565b6200038a565b6001600160e01b03198082161415620002a5576040805162461bcd60e51b815260206004820152601c60248201527f4552433136353a20696e76616c696420696e7465726661636520696400000000604482015290519081900360640190fd5b6001600160e01b0319166000908152602081905260409020805460ff19166001179055565b335b90565b8051620002e4906009906020840190620002e8565b5050565b828054600181600116156101000203166002900490600052602060002090601f016020900481019282601f106200032b57805160ff19168380011785556200035b565b828001600101855582156200035b579182015b828111156200035b5782518255916020019190600101906200033e565b50620003699291506200036d565b5090565b620002cc91905b8082111562000369576000815560010162000374565b61308d806200039a6000396000f3fe60806040526004361061023b5760003560e01c806376e812631161012e578063b88d4fde116100ab578063d96a094a1161006f578063d96a094a14610964578063e081b78114610981578063e582cf1514610996578063e985e9c5146109ab578063f2fde38b146109e65761023b565b8063b88d4fde14610781578063c1179a7f14610852578063c59e1c7814610867578063c87b56dd14610925578063cf3090121461094f5761023b565b806391992206116100f257806391992206146106f2578063940f1ada1461070757806395d89b411461071c578063989bdbb614610731578063a22cb465146107465761023b565b806376e81263146106895780637bffb4ce1461069e57806383a9e049146106b35780638d859f3e146106c85780638da5cb5b146106dd5761023b565b806342842e0e116101bc578063617d112611610180578063617d1126146105ed5780636352211e146106025780636c0360eb1461062c57806370a0823114610641578063715018a6146106745761023b565b806342842e0e146104db5780634f6ccce71461051e57806355072fef1461054857806355f804b31461055d57806359a12ad5146105d85761023b565b8063163e1e6111610203578063163e1e61146103a857806318160ddd1461042357806323b872dd1461044a5780632f745c591461048d5780633fae9651146104c65761023b565b806301ffc9a714610240578063049c5c491461028857806306fdde031461029f578063081812fc14610329578063095ea7b31461036f575b600080fd5b34801561024c57600080fd5b506102746004803603602081101561026357600080fd5b50356001600160e01b031916610a19565b604080519115158252519081900360200190f35b34801561029457600080fd5b5061029d610a3c565b005b3480156102ab57600080fd5b506102b4610ab1565b6040805160208082528351818301528351919283929083019185019080838360005b838110156102ee5781810151838201526020016102d6565b50505050905090810190601f16801561031b5780820380516001836020036101000a031916815260200191505b509250505060405180910390f35b34801561033557600080fd5b506103536004803603602081101561034c57600080fd5b5035610b48565b604080516001600160a01b039092168252519081900360200190f35b34801561037b57600080fd5b5061029d6004803603604081101561039257600080fd5b506001600160a01b038135169060200135610baa565b3480156103b457600080fd5b5061029d600480360360208110156103cb57600080fd5b810190602081018135600160201b8111156103e557600080fd5b8201836020820111156103f757600080fd5b803590602001918460208302840111600160201b8311171561041857600080fd5b509092509050610c85565b34801561042f57600080fd5b50610438610dc0565b60408051918252519081900360200190f35b34801561045657600080fd5b5061029d6004803603606081101561046d57600080fd5b506001600160a01b03813581169160208101359091169060400135610dd1565b34801561049957600080fd5b50610438600480360360408110156104b057600080fd5b506001600160a01b038135169060200135610e28565b3480156104d257600080fd5b50610438610e59565b3480156104e757600080fd5b5061029d600480360360608110156104fe57600080fd5b506001600160a01b03813581169160208101359091169060400135610e5f565b34801561052a57600080fd5b506104386004803603602081101561054157600080fd5b5035610e7a565b34801561055457600080fd5b50610438610e96565b34801561056957600080fd5b5061029d6004803603602081101561058057600080fd5b810190602081018135600160201b81111561059a57600080fd5b8201836020820111156105ac57600080fd5b803590602001918460018302840111600160201b831117156105cd57600080fd5b509092509050610e9c565b3480156105e457600080fd5b50610438610f8c565b3480156105f957600080fd5b50610438610f92565b34801561060e57600080fd5b506103536004803603602081101561062557600080fd5b5035610f98565b34801561063857600080fd5b506102b4610fc6565b34801561064d57600080fd5b506104386004803603602081101561066457600080fd5b50356001600160a01b0316611027565b34801561068057600080fd5b5061029d61108f565b34801561069557600080fd5b50610438611131565b3480156106aa57600080fd5b5061029d611136565b3480156106bf57600080fd5b506102746111a2565b3480156106d457600080fd5b506104386111ab565b3480156106e957600080fd5b506103536111b7565b3480156106fe57600080fd5b506104386111c6565b34801561071357600080fd5b506104386111cb565b34801561072857600080fd5b506102b46111d1565b34801561073d57600080fd5b5061029d611232565b34801561075257600080fd5b5061029d6004803603604081101561076957600080fd5b506001600160a01b038135169060200135151561129d565b34801561078d57600080fd5b5061029d600480360360808110156107a457600080fd5b6001600160a01b03823581169260208101359091169160408201359190810190608081016060820135600160201b8111156107de57600080fd5b8201836020820111156107f057600080fd5b803590602001918460018302840111600160201b8311171561081157600080fd5b91908080601f0160208091040260200160405190810160405280939291908181526020018383808284376000920191909152509295506113a2945050505050565b34801561085e57600080fd5b50610438611400565b61029d6004803603606081101561087d57600080fd5b810190602081018135600160201b81111561089757600080fd5b8201836020820111156108a957600080fd5b803590602001918460018302840111600160201b831117156108ca57600080fd5b919390929091602081019035600160201b8111156108e757600080fd5b8201836020820111156108f957600080fd5b803590602001918460018302840111600160201b8311171561091a57600080fd5b919350915035611406565b34801561093157600080fd5b506102b46004803603602081101561094857600080fd5b503561169c565b34801561095b57600080fd5b50610274611943565b61029d6004803603602081101561097a57600080fd5b5035611952565b34801561098d57600080fd5b50610274611be5565b3480156109a257600080fd5b50610438611bf3565b3480156109b757600080fd5b50610274600480360360408110156109ce57600080fd5b506001600160a01b0381358116916020013516611bf9565b3480156109f257600080fd5b5061029d60048036036020811015610a0957600080fd5b50356001600160a01b0316611c27565b6001600160e01b0319811660009081526020819052604090205460ff165b919050565b610a44611d20565b600a546001600160a01b03908116911614610a94576040805162461bcd60e51b81526020600482018190526024820152600080516020612f6a833981519152604482015290519081900360640190fd5b6012805461ff001981166101009182900460ff1615909102179055565b60068054604080516020601f6002600019610100600188161502019095169490940493840181900481028201810190925282815260609390929091830182828015610b3d5780601f10610b1257610100808354040283529160200191610b3d565b820191906000526020600020905b815481529060010190602001808311610b2057829003601f168201915b505050505090505b90565b6000610b5382611d24565b610b8e5760405162461bcd60e51b815260040180806020018281038252602c815260200180612f3e602c913960400191505060405180910390fd5b506000908152600460205260409020546001600160a01b031690565b6000610bb582610f98565b9050806001600160a01b0316836001600160a01b03161415610c085760405162461bcd60e51b81526004018080602001828103825260218152602001806130066021913960400191505060405180910390fd5b806001600160a01b0316610c1a611d20565b6001600160a01b03161480610c3b5750610c3b81610c36611d20565b611bf9565b610c765760405162461bcd60e51b8152600401808060200182810382526038815260200180612e6f6038913960400191505060405180910390fd5b610c808383611d37565b505050565b610c8d611d20565b600a546001600160a01b03908116911614610cdd576040805162461bcd60e51b81526020600482018190526024820152600080516020612f6a833981519152604482015290519081900360640190fd5b6122b881610ce9610dc0565b011115610d2c576040805162461bcd60e51b815260206004820152600c60248201526b4f55545f4f465f53544f434b60a01b604482015290519081900360640190fd5b600f5460589082011115610d75576040805162461bcd60e51b815260206004820152600b60248201526a47494654535f454d50545960a81b604482015290519081900360640190fd5b60005b81811015610c8057600f80546001019055610db8838383818110610d9857fe5b905060200201356001600160a01b0316610db0610dc0565b600101611da5565b600101610d78565b6000610dcc6002611dbf565b905090565b610de2610ddc611d20565b82611dca565b610e1d5760405162461bcd60e51b81526004018080602001828103825260318152602001806130276031913960400191505060405180910390fd5b610c80838383611e6e565b6001600160a01b0382166000908152600160205260408120610e50908363ffffffff611fcc16565b90505b92915050565b600e5481565b610c80838383604051806020016040528060008152506113a2565b600080610e8e60028463ffffffff611fd816565b509392505050565b61032081565b610ea4611d20565b600a546001600160a01b03908116911614610ef4576040805162461bcd60e51b81526020600482018190526024820152600080516020612f6a833981519152604482015290519081900360640190fd5b60125462010000900460ff1615610f3c5760405162461bcd60e51b8152600401808060200182810382526024815260200180612fe26024913960400191505060405180910390fd5b610f48600d8383612c7c565b50610f8882828080601f016020809104026020016040519081016040528093929190818152602001838380828437600092019190915250611ff492505050565b5050565b60115481565b6122b881565b6000610e5382604051806060016040528060298152602001612ed1602991396002919063ffffffff61200716565b60098054604080516020601f6002600019610100600188161502019095169490940493840181900481028201810190925282815260609390929091830182828015610b3d5780601f10610b1257610100808354040283529160200191610b3d565b60006001600160a01b03821661106e5760405162461bcd60e51b815260040180806020018281038252602a815260200180612ea7602a913960400191505060405180910390fd5b6001600160a01b0382166000908152600160205260409020610e5390611dbf565b611097611d20565b600a546001600160a01b039081169116146110e7576040805162461bcd60e51b81526020600482018190526024820152600080516020612f6a833981519152604482015290519081900360640190fd5b600a546040516000916001600160a01b0316907f8be0079c531659141344cd1fd0a4f28419497f9722a3daafe3b4186f6b6457e0908390a3600a80546001600160a01b0319169055565b600581565b61113e611d20565b600a546001600160a01b0390811691161461118e576040805162461bcd60e51b81526020600482018190526024820152600080516020612f6a833981519152604482015290519081900360640190fd5b6012805460ff19811660ff90911615179055565b60125460ff1681565b67011c37937e08000081565b600a546001600160a01b031690565b605881565b60105481565b60078054604080516020601f6002600019610100600188161502019095169490940493840181900481028201810190925282815260609390929091830182828015610b3d5780601f10610b1257610100808354040283529160200191610b3d565b61123a611d20565b600a546001600160a01b0390811691161461128a576040805162461bcd60e51b81526020600482018190526024820152600080516020612f6a833981519152604482015290519081900360640190fd5b6012805462ff0000191662010000179055565b6112a5611d20565b6001600160a01b0316826001600160a01b0316141561130b576040805162461bcd60e51b815260206004820152601960248201527f4552433732313a20617070726f766520746f2063616c6c657200000000000000604482015290519081900360640190fd5b8060056000611318611d20565b6001600160a01b03908116825260208083019390935260409182016000908120918716808252919093529120805460ff19169215159290921790915561135c611d20565b60408051841515815290516001600160a01b0392909216917f17307eab39ab6107e8899845ad3d59bd9653f200f220920489ca2b5937696c319181900360200190a35050565b6113b36113ad611d20565b83611dca565b6113ee5760405162461bcd60e51b81526004018080602001828103825260318152602001806130276031913960400191505060405180910390fd5b6113fa8484848461201e565b50505050565b611f4081565b601254610100900460ff16158015611420575060125460ff165b611462576040805162461bcd60e51b815260206004820152600e60248201526d14149154d0531157d0d313d4d15160921b604482015290519081900360640190fd5b610320816011540111156114ae576040805162461bcd60e51b815260206004820152600e60248201526d4558434545445f5052495641544560901b604482015290519081900360640190fd5b348167011c37937e080000021115611500576040805162461bcd60e51b815260206004820152601060248201526f0929ca6aa8c8c9286928a9ca8be8aa8960831b604482015290519081900360640190fd5b611580611544338386868080601f01602080910402602001604051908101604052809392919081815260200183838082843760009201919091525061207092505050565b86868080601f01602080910402602001604051908101604052809392919081815260200183838082843760009201919091525061216192505050565b6115ca576040805162461bcd60e51b81526020600482015260166024820152751112549150d517d352539517d11254d0531313d5d15160521b604482015290519081900360640190fd5b601180548201905560005b818110156115f1576115e933610db0610dc0565b6001016115d5565b5060405160009073836d5a18960f7ab7dcf3261248b85838475f060c9034908381818185875af1925050503d8060008114611648576040519150601f19603f3d011682016040523d82523d6000602084013e61164d565b606091505b5050905080611694576040805162461bcd60e51b815260206004820152600e60248201526d18dbdd5b19081b9bdd081cd95b9960921b604482015290519081900360640190fd5b505050505050565b60606116a782611d24565b6116e25760405162461bcd60e51b815260040180806020018281038252602f815260200180612fb3602f913960400191505060405180910390fd5b60008281526008602090815260409182902080548351601f60026000196101006001861615020190931692909204918201849004840281018401909452808452606093928301828280156117775780601f1061174c57610100808354040283529160200191611777565b820191906000526020600020905b81548152906001019060200180831161175a57829003601f168201915b5050600954939450505050600260001961010060018416150201909116046117a0579050610a37565b8051156118715760098160405160200180838054600181600116156101000203166002900480156118085780601f106117e6576101008083540402835291820191611808565b820191906000526020600020905b8154815290600101906020018083116117f4575b5050825160208401908083835b602083106118345780518252601f199092019160209182019101611815565b6001836020036101000a03801982511681845116808217855250505050505090500192505050604051602081830303815290604052915050610a37565b600961187c8461218b565b60405160200180838054600181600116156101000203166002900480156118da5780601f106118b85761010080835404028352918201916118da565b820191906000526020600020905b8154815290600101906020018083116118c6575b5050825160208401908083835b602083106119065780518252601f1990920191602091820191016118e7565b6001836020036101000a03801982511681845116808217855250505050505090500192505050604051602081830303815290604052915050919050565b60125462010000900460ff1681565b601254610100900460ff1661199c576040805162461bcd60e51b815260206004820152600b60248201526a14d0531157d0d313d4d15160aa1b604482015290519081900360640190fd5b60125460ff16156119e3576040805162461bcd60e51b815260206004820152600c60248201526b4f4e4c595f50524553414c4560a01b604482015290519081900360640190fd5b6122b86119ee610dc0565b10611a2f576040805162461bcd60e51b815260206004820152600c60248201526b4f55545f4f465f53544f434b60a01b604482015290519081900360640190fd5b611f4081601054011115611a7a576040805162461bcd60e51b815260206004820152600d60248201526c4558434545445f5055424c494360981b604482015290519081900360640190fd5b6005811115611ac8576040805162461bcd60e51b8152602060048201526015602482015274115610d1515117d31253525517d4115497d3525395605a1b604482015290519081900360640190fd5b348167011c37937e080000021115611b1a576040805162461bcd60e51b815260206004820152601060248201526f0929ca6aa8c8c9286928a9ca8be8aa8960831b604482015290519081900360640190fd5b60005b81811015611b4257601080546001019055611b3a33610db0610dc0565b600101611b1d565b5060405160009073836d5a18960f7ab7dcf3261248b85838475f060c9034908381818185875af1925050503d8060008114611b99576040519150601f19603f3d011682016040523d82523d6000602084013e611b9e565b606091505b5050905080610f88576040805162461bcd60e51b815260206004820152600e60248201526d18dbdd5b19081b9bdd081cd95b9960921b604482015290519081900360640190fd5b601254610100900460ff1681565b600f5481565b6001600160a01b03918216600090815260056020908152604080832093909416825291909152205460ff1690565b611c2f611d20565b600a546001600160a01b03908116911614611c7f576040805162461bcd60e51b81526020600482018190526024820152600080516020612f6a833981519152604482015290519081900360640190fd5b6001600160a01b038116611cc45760405162461bcd60e51b8152600401808060200182810382526026815260200180612dd76026913960400191505060405180910390fd5b600a546040516001600160a01b038084169216907f8be0079c531659141344cd1fd0a4f28419497f9722a3daafe3b4186f6b6457e090600090a3600a80546001600160a01b0319166001600160a01b0392909216919091179055565b3390565b6000610e5360028363ffffffff61226616565b600081815260046020526040902080546001600160a01b0319166001600160a01b0384169081179091558190611d6c82610f98565b6001600160a01b03167f8c5be1e5ebec7d5bd14f71427d1e84f3dd0314c0f7b2291e5b200ac8c7c3b92560405160405180910390a45050565b610f88828260405180602001604052806000815250612272565b6000610e53826122c4565b6000611dd582611d24565b611e105760405162461bcd60e51b815260040180806020018281038252602c815260200180612e43602c913960400191505060405180910390fd5b6000611e1b83610f98565b9050806001600160a01b0316846001600160a01b03161480611e565750836001600160a01b0316611e4b84610b48565b6001600160a01b0316145b80611e665750611e668185611bf9565b949350505050565b826001600160a01b0316611e8182610f98565b6001600160a01b031614611ec65760405162461bcd60e51b8152600401808060200182810382526029815260200180612f8a6029913960400191505060405180910390fd5b6001600160a01b038216611f0b5760405162461bcd60e51b8152600401808060200182810382526024815260200180612dfd6024913960400191505060405180910390fd5b611f16838383610c80565b611f21600082611d37565b6001600160a01b0383166000908152600160205260409020611f49908263ffffffff6122c816565b506001600160a01b0382166000908152600160205260409020611f72908263ffffffff6122d416565b50611f856002828463ffffffff6122e016565b5080826001600160a01b0316846001600160a01b03167fddf252ad1be2c89b69c2b068fc378daa952ba7f163c4a11628f55a4df523b3ef60405160405180910390a4505050565b6000610e5083836122f6565b6000808080611fe7868661235a565b9097909650945050505050565b8051610f88906009906020840190612cfa565b60006120148484846123d5565b90505b9392505050565b612029848484611e6e565b6120358484848461249f565b6113fa5760405162461bcd60e51b8152600401808060200182810382526032815260200180612da56032913960400191505060405180910390fd5b60008084848460405160200180846001600160a01b03166001600160a01b031660601b815260140183815260200182805190602001908083835b602083106120c95780518252601f1990920191602091820191016120aa565b6001836020036101000a03801982511681845116808217855250505050505090500193505050506040516020818303038152906040528051906020012060405160200180807f19457468657265756d205369676e6564204d6573736167653a0a333200000000815250601c01828152602001915050604051602081830303815290604052805190602001209050809150509392505050565b6000612173838363ffffffff61261f16565b600b546001600160a01b039182169116149392505050565b6060816121b057506040805180820190915260018152600360fc1b6020820152610a37565b8160005b81156121c857600101600a820491506121b4565b60608167ffffffffffffffff811180156121e157600080fd5b506040519080825280601f01601f19166020018201604052801561220c576020820181803683370190505b50859350905060001982015b831561225d57600a840660300160f81b8282806001900393508151811061223b57fe5b60200101906001600160f81b031916908160001a905350600a84049350612218565b50949350505050565b6000610e508383612806565b61227c838361281e565b612289600084848461249f565b610c805760405162461bcd60e51b8152600401808060200182810382526032815260200180612da56032913960400191505060405180910390fd5b5490565b6000610e508383612958565b6000610e508383612a1e565b600061201484846001600160a01b038516612a68565b815460009082106123385760405162461bcd60e51b8152600401808060200182810382526022815260200180612d836022913960400191505060405180910390fd5b82600001828154811061234757fe5b9060005260206000200154905092915050565b81546000908190831061239e5760405162461bcd60e51b8152600401808060200182810382526022815260200180612f1c6022913960400191505060405180910390fd5b60008460000184815481106123af57fe5b906000526020600020906002020190508060000154816001015492509250509250929050565b600082815260018401602052604081205482816124705760405162461bcd60e51b81526004018080602001828103825283818151815260200191508051906020019080838360005b8381101561243557818101518382015260200161241d565b50505050905090810190601f1680156124625780820380516001836020036101000a031916815260200191505b509250505060405180910390fd5b5084600001600182038154811061248357fe5b9060005260206000209060020201600101549150509392505050565b60006124b3846001600160a01b0316612aff565b6124bf57506001611e66565b60606125e5630a85bd0160e11b6124d4611d20565b88878760405160240180856001600160a01b03166001600160a01b03168152602001846001600160a01b03166001600160a01b0316815260200183815260200180602001828103825283818151815260200191508051906020019080838360005b8381101561254d578181015183820152602001612535565b50505050905090810190601f16801561257a5780820380516001836020036101000a031916815260200191505b5095505050505050604051602081830303815290604052906001600160e01b0319166020820180516001600160e01b038381831617835250505050604051806060016040528060328152602001612da5603291396001600160a01b038816919063ffffffff612b0516565b905060008180602001905160208110156125fe57600080fd5b50516001600160e01b031916630a85bd0160e11b1492505050949350505050565b60008151604114612677576040805162461bcd60e51b815260206004820152601f60248201527f45434453413a20696e76616c6964207369676e6174757265206c656e67746800604482015290519081900360640190fd5b60208201516040830151606084015160001a7f7fffffffffffffffffffffffffffffff5d576e7357a4501ddfe92f46681b20a08211156126e85760405162461bcd60e51b8152600401808060200182810382526022815260200180612e216022913960400191505060405180910390fd5b8060ff16601b1415801561270057508060ff16601c14155b1561273c5760405162461bcd60e51b8152600401808060200182810382526022815260200180612efa6022913960400191505060405180910390fd5b60408051600080825260208083018085528a905260ff85168385015260608301879052608083018690529251909260019260a080820193601f1981019281900390910190855afa158015612794573d6000803e3d6000fd5b5050604051601f1901519150506001600160a01b0381166127fc576040805162461bcd60e51b815260206004820152601860248201527f45434453413a20696e76616c6964207369676e61747572650000000000000000604482015290519081900360640190fd5b9695505050505050565b60009081526001919091016020526040902054151590565b6001600160a01b038216612879576040805162461bcd60e51b815260206004820181905260248201527f4552433732313a206d696e7420746f20746865207a65726f2061646472657373604482015290519081900360640190fd5b61288281611d24565b156128d4576040805162461bcd60e51b815260206004820152601c60248201527f4552433732313a20746f6b656e20616c7265616479206d696e74656400000000604482015290519081900360640190fd5b6128e060008383610c80565b6001600160a01b0382166000908152600160205260409020612908908263ffffffff6122d416565b5061291b6002828463ffffffff6122e016565b5060405181906001600160a01b038416906000907fddf252ad1be2c89b69c2b068fc378daa952ba7f163c4a11628f55a4df523b3ef908290a45050565b60008181526001830160205260408120548015612a14578354600019808301919081019060009087908390811061298b57fe5b90600052602060002001549050808760000184815481106129a857fe5b6000918252602080832090910192909255828152600189810190925260409020908401905586548790806129d857fe5b60019003818190600052602060002001600090559055866001016000878152602001908152602001600020600090556001945050505050610e53565b6000915050610e53565b6000612a2a8383612806565b612a6057508154600181810184556000848152602080822090930184905584548482528286019093526040902091909155610e53565b506000610e53565b600082815260018401602052604081205480612acd575050604080518082018252838152602080820184815286546001818101895560008981528481209551600290930290950191825591519082015586548684528188019092529290912055612017565b82856000016001830381548110612ae057fe5b9060005260206000209060020201600101819055506000915050612017565b3b151590565b606061201484846000856060612b1a85612aff565b612b6b576040805162461bcd60e51b815260206004820152601d60248201527f416464726573733a2063616c6c20746f206e6f6e2d636f6e7472616374000000604482015290519081900360640190fd5b60006060866001600160a01b031685876040518082805190602001908083835b60208310612baa5780518252601f199092019160209182019101612b8b565b6001836020036101000a03801982511681845116808217855250505050505090500191505060006040518083038185875af1925050503d8060008114612c0c576040519150601f19603f3d011682016040523d82523d6000602084013e612c11565b606091505b50915091508115612c25579150611e669050565b805115612c355780518082602001fd5b60405162461bcd60e51b815260206004820181815286516024840152865187939192839260440191908501908083836000831561243557818101518382015260200161241d565b828054600181600116156101000203166002900490600052602060002090601f016020900481019282601f10612cbd5782800160ff19823516178555612cea565b82800160010185558215612cea579182015b82811115612cea578235825591602001919060010190612ccf565b50612cf6929150612d68565b5090565b828054600181600116156101000203166002900490600052602060002090601f016020900481019282601f10612d3b57805160ff1916838001178555612cea565b82800160010185558215612cea579182015b82811115612cea578251825591602001919060010190612d4d565b610b4591905b80821115612cf65760008155600101612d6e56fe456e756d657261626c655365743a20696e646578206f7574206f6620626f756e64734552433732313a207472616e7366657220746f206e6f6e20455243373231526563656976657220696d706c656d656e7465724f776e61626c653a206e6577206f776e657220697320746865207a65726f20616464726573734552433732313a207472616e7366657220746f20746865207a65726f206164647265737345434453413a20696e76616c6964207369676e6174757265202773272076616c75654552433732313a206f70657261746f7220717565727920666f72206e6f6e6578697374656e7420746f6b656e4552433732313a20617070726f76652063616c6c6572206973206e6f74206f776e6572206e6f7220617070726f76656420666f7220616c6c4552433732313a2062616c616e636520717565727920666f7220746865207a65726f20616464726573734552433732313a206f776e657220717565727920666f72206e6f6e6578697374656e7420746f6b656e45434453413a20696e76616c6964207369676e6174757265202776272076616c7565456e756d657261626c654d61703a20696e646578206f7574206f6620626f756e64734552433732313a20617070726f76656420717565727920666f72206e6f6e6578697374656e7420746f6b656e4f776e61626c653a2063616c6c6572206973206e6f7420746865206f776e65724552433732313a207472616e73666572206f6620746f6b656e2074686174206973206e6f74206f776e4552433732314d657461646174613a2055524920717565727920666f72206e6f6e6578697374656e7420746f6b656e436f6e7472616374206d65746164617461206d6574686f647320617265206c6f636b65644552433732313a20617070726f76616c20746f2063757272656e74206f776e65724552433732313a207472616e736665722063616c6c6572206973206e6f74206f776e6572206e6f7220617070726f766564a2646970667358221220b85294b4be13f8560d551438677ae7a41f041cc4b033b3f93b0f308e1b8341a364736f6c6343000607003368747470733a2f2f6170692d6e66742d706c616365686f6c6465722e6865726f6b756170702e636f6d2f6170692f6d657461646174612f",
  "devdoc": {
    "methods": {
      "approve(address,uint256)": {
        "details": "See {IERC721-approve}."
      },
      "balanceOf(address)": {
        "details": "See {IERC721-balanceOf}."
      },
      "baseURI()": {
        "details": "Returns the base URI set via {_setBaseURI}. This will be automatically added as a prefix in {tokenURI} to each token's URI, or to the token ID if no specific URI is set for that token ID."
      },
      "getApproved(uint256)": {
        "details": "See {IERC721-getApproved}."
      },
      "isApprovedForAll(address,address)": {
        "details": "See {IERC721-isApprovedForAll}."
      },
      "name()": {
        "details": "See {IERC721Metadata-name}."
      },
      "owner()": {
        "details": "Returns the address of the current owner."
      },
      "ownerOf(uint256)": {
        "details": "See {IERC721-ownerOf}."
      },
      "renounceOwnership()": {
        "details": "Leaves the contract without owner. It will not be possible to call `onlyOwner` functions anymore. Can only be called by the current owner.     * NOTE: Renouncing ownership will leave the contract without an owner, thereby removing any functionality that is only available to the owner."
      },
      "safeTransferFrom(address,address,uint256)": {
        "details": "See {IERC721-safeTransferFrom}."
      },
      "safeTransferFrom(address,address,uint256,bytes)": {
        "details": "See {IERC721-safeTransferFrom}."
      },
      "setApprovalForAll(address,bool)": {
        "details": "See {IERC721-setApprovalForAll}."
      },
      "supportsInterface(bytes4)": {
        "details": "See {IERC165-supportsInterface}.     * Time complexity O(1), guaranteed to always use less than 30 000 gas."
      },
      "symbol()": {
        "details": "See {IERC721Metadata-symbol}."
      },
      "tokenByIndex(uint256)": {
        "details": "See {IERC721Enumerable-tokenByIndex}."
      },
      "tokenOfOwnerByIndex(address,uint256)": {
        "details": "See {IERC721Enumerable-tokenOfOwnerByIndex}."
      },
      "tokenURI(uint256)": {
        "details": "See {IERC721Metadata-tokenURI}."
      },
      "totalSupply()": {
        "details": "See {IERC721Enumerable-totalSupply}."
      },
      "transferFrom(address,address,uint256)": {
        "details": "See {IERC721-transferFrom}."
      },
      "transferOwnership(address)": {
        "details": "Transfers ownership of the contract to a new account (`newOwner`). Can only be called by the current owner."
      }
    }
  },
  "userdoc": {
    "methods": {}
  },
  "storageLayout": {
    "storage": [
      {
        "astId": 242,
        "contract": "contracts/YourCollectible.sol:Totality",
        "label": "_supportedInterfaces",
        "offset": 0,
        "slot": "0",
        "type": "t_mapping(t_bytes4,t_bool)"
      },
      {
        "astId": 539,
        "contract": "contracts/YourCollectible.sol:Totality",
        "label": "_holderTokens",
        "offset": 0,
        "slot": "1",
        "type": "t_mapping(t_address,t_struct(UintSet)2616_storage)"
      },
      {
        "astId": 541,
        "contract": "contracts/YourCollectible.sol:Totality",
        "label": "_tokenOwners",
        "offset": 0,
        "slot": "2",
        "type": "t_struct(UintToAddressMap)2141_storage"
      },
      {
        "astId": 545,
        "contract": "contracts/YourCollectible.sol:Totality",
        "label": "_tokenApprovals",
        "offset": 0,
        "slot": "4",
        "type": "t_mapping(t_uint256,t_address)"
      },
      {
        "astId": 551,
        "contract": "contracts/YourCollectible.sol:Totality",
        "label": "_operatorApprovals",
        "offset": 0,
        "slot": "5",
        "type": "t_mapping(t_address,t_mapping(t_address,t_bool))"
      },
      {
        "astId": 553,
        "contract": "contracts/YourCollectible.sol:Totality",
        "label": "_name",
        "offset": 0,
        "slot": "6",
        "type": "t_string_storage"
      },
      {
        "astId": 555,
        "contract": "contracts/YourCollectible.sol:Totality",
        "label": "_symbol",
        "offset": 0,
        "slot": "7",
        "type": "t_string_storage"
      },
      {
        "astId": 559,
        "contract": "contracts/YourCollectible.sol:Totality",
        "label": "_tokenURIs",
        "offset": 0,
        "slot": "8",
        "type": "t_mapping(t_uint256,t_string_storage)"
      },
      {
        "astId": 561,
        "contract": "contracts/YourCollectible.sol:Totality",
        "label": "_baseURI",
        "offset": 0,
        "slot": "9",
        "type": "t_string_storage"
      },
      {
        "astId": 30,
        "contract": "contracts/YourCollectible.sol:Totality",
        "label": "_owner",
        "offset": 0,
        "slot": "10",
        "type": "t_address"
      },
      {
        "astId": 2817,
        "contract": "contracts/YourCollectible.sol:Totality",
        "label": "_signerAddress",
        "offset": 0,
        "slot": "11",
        "type": "t_address"
      },
      {
        "astId": 2822,
        "contract": "contracts/YourCollectible.sol:Totality",
        "label": "_tokenIds",
        "offset": 0,
        "slot": "12",
        "type": "t_struct(Counter)1821_storage"
      },
      {
        "astId": 2825,
        "contract": "contracts/YourCollectible.sol:Totality",
        "label": "_tokenBaseURI",
        "offset": 0,
        "slot": "13",
        "type": "t_string_storage"
      },
      {
        "astId": 2861,
        "contract": "contracts/YourCollectible.sol:Totality",
        "label": "requested",
        "offset": 0,
        "slot": "14",
        "type": "t_uint256"
      },
      {
        "astId": 2863,
        "contract": "contracts/YourCollectible.sol:Totality",
        "label": "giftedAmountMinted",
        "offset": 0,
        "slot": "15",
        "type": "t_uint256"
      },
      {
        "astId": 2865,
        "contract": "contracts/YourCollectible.sol:Totality",
        "label": "publicAmountMinted",
        "offset": 0,
        "slot": "16",
        "type": "t_uint256"
      },
      {
        "astId": 2867,
        "contract": "contracts/YourCollectible.sol:Totality",
        "label": "privateAmountMinted",
        "offset": 0,
        "slot": "17",
        "type": "t_uint256"
      },
      {
        "astId": 2869,
        "contract": "contracts/YourCollectible.sol:Totality",
        "label": "presaleLive",
        "offset": 0,
        "slot": "18",
        "type": "t_bool"
      },
      {
        "astId": 2871,
        "contract": "contracts/YourCollectible.sol:Totality",
        "label": "saleLive",
        "offset": 1,
        "slot": "18",
        "type": "t_bool"
      },
      {
        "astId": 2873,
        "contract": "contracts/YourCollectible.sol:Totality",
        "label": "locked",
        "offset": 2,
        "slot": "18",
        "type": "t_bool"
      }
    ],
    "types": {
      "t_address": {
        "encoding": "inplace",
        "label": "address",
        "numberOfBytes": "20"
      },
      "t_array(t_bytes32)dyn_storage": {
        "base": "t_bytes32",
        "encoding": "dynamic_array",
        "label": "bytes32[]",
        "numberOfBytes": "32"
      },
      "t_array(t_struct(MapEntry)1869_storage)dyn_storage": {
        "base": "t_struct(MapEntry)1869_storage",
        "encoding": "dynamic_array",
        "label": "struct EnumerableMap.MapEntry[]",
        "numberOfBytes": "32"
      },
      "t_bool": {
        "encoding": "inplace",
        "label": "bool",
        "numberOfBytes": "1"
      },
      "t_bytes32": {
        "encoding": "inplace",
        "label": "bytes32",
        "numberOfBytes": "32"
      },
      "t_bytes4": {
        "encoding": "inplace",
        "label": "bytes4",
        "numberOfBytes": "4"
      },
      "t_mapping(t_address,t_bool)": {
        "encoding": "mapping",
        "key": "t_address",
        "label": "mapping(address => bool)",
        "numberOfBytes": "32",
        "value": "t_bool"
      },
      "t_mapping(t_address,t_mapping(t_address,t_bool))": {
        "encoding": "mapping",
        "key": "t_address",
        "label": "mapping(address => mapping(address => bool))",
        "numberOfBytes": "32",
        "value": "t_mapping(t_address,t_bool)"
      },
      "t_mapping(t_address,t_struct(UintSet)2616_storage)": {
        "encoding": "mapping",
        "key": "t_address",
        "label": "mapping(address => struct EnumerableSet.UintSet)",
        "numberOfBytes": "32",
        "value": "t_struct(UintSet)2616_storage"
      },
      "t_mapping(t_bytes32,t_uint256)": {
        "encoding": "mapping",
        "key": "t_bytes32",
        "label": "mapping(bytes32 => uint256)",
        "numberOfBytes": "32",
        "value": "t_uint256"
      },
      "t_mapping(t_bytes4,t_bool)": {
        "encoding": "mapping",
        "key": "t_bytes4",
        "label": "mapping(bytes4 => bool)",
        "numberOfBytes": "32",
        "value": "t_bool"
      },
      "t_mapping(t_uint256,t_address)": {
        "encoding": "mapping",
        "key": "t_uint256",
        "label": "mapping(uint256 => address)",
        "numberOfBytes": "32",
        "value": "t_address"
      },
      "t_mapping(t_uint256,t_string_storage)": {
        "encoding": "mapping",
        "key": "t_uint256",
        "label": "mapping(uint256 => string)",
        "numberOfBytes": "32",
        "value": "t_string_storage"
      },
      "t_string_storage": {
        "encoding": "bytes",
        "label": "string",
        "numberOfBytes": "32"
      },
      "t_struct(Counter)1821_storage": {
        "encoding": "inplace",
        "label": "struct Counters.Counter",
        "members": [
          {
            "astId": 1820,
            "contract": "contracts/YourCollectible.sol:Totality",
            "label": "_value",
            "offset": 0,
            "slot": "0",
            "type": "t_uint256"
          }
        ],
        "numberOfBytes": "32"
      },
      "t_struct(Map)1877_storage": {
        "encoding": "inplace",
        "label": "struct EnumerableMap.Map",
        "members": [
          {
            "astId": 1872,
            "contract": "contracts/YourCollectible.sol:Totality",
            "label": "_entries",
            "offset": 0,
            "slot": "0",
            "type": "t_array(t_struct(MapEntry)1869_storage)dyn_storage"
          },
          {
            "astId": 1876,
            "contract": "contracts/YourCollectible.sol:Totality",
            "label": "_indexes",
            "offset": 0,
            "slot": "1",
            "type": "t_mapping(t_bytes32,t_uint256)"
          }
        ],
        "numberOfBytes": "64"
      },
      "t_struct(MapEntry)1869_storage": {
        "encoding": "inplace",
        "label": "struct EnumerableMap.MapEntry",
        "members": [
          {
            "astId": 1866,
            "contract": "contracts/YourCollectible.sol:Totality",
            "label": "_key",
            "offset": 0,
            "slot": "0",
            "type": "t_bytes32"
          },
          {
            "astId": 1868,
            "contract": "contracts/YourCollectible.sol:Totality",
            "label": "_value",
            "offset": 0,
            "slot": "1",
            "type": "t_bytes32"
          }
        ],
        "numberOfBytes": "64"
      },
      "t_struct(Set)2327_storage": {
        "encoding": "inplace",
        "label": "struct EnumerableSet.Set",
        "members": [
          {
            "astId": 2322,
            "contract": "contracts/YourCollectible.sol:Totality",
            "label": "_values",
            "offset": 0,
            "slot": "0",
            "type": "t_array(t_bytes32)dyn_storage"
          },
          {
            "astId": 2326,
            "contract": "contracts/YourCollectible.sol:Totality",
            "label": "_indexes",
            "offset": 0,
            "slot": "1",
            "type": "t_mapping(t_bytes32,t_uint256)"
          }
        ],
        "numberOfBytes": "64"
      },
      "t_struct(UintSet)2616_storage": {
        "encoding": "inplace",
        "label": "struct EnumerableSet.UintSet",
        "members": [
          {
            "astId": 2615,
            "contract": "contracts/YourCollectible.sol:Totality",
            "label": "_inner",
            "offset": 0,
            "slot": "0",
            "type": "t_struct(Set)2327_storage"
          }
        ],
        "numberOfBytes": "64"
      },
      "t_struct(UintToAddressMap)2141_storage": {
        "encoding": "inplace",
        "label": "struct EnumerableMap.UintToAddressMap",
        "members": [
          {
            "astId": 2140,
            "contract": "contracts/YourCollectible.sol:Totality",
            "label": "_inner",
            "offset": 0,
            "slot": "0",
            "type": "t_struct(Map)1877_storage"
          }
        ],
        "numberOfBytes": "64"
      },
      "t_uint256": {
        "encoding": "inplace",
        "label": "uint256",
        "numberOfBytes": "32"
      }
    }
  }
}